{
  "contractName": "LandRegistery",
  "abi": [
    {
      "inputs": [],
      "stateMutability": "nonpayable",
      "type": "constructor"
    },
    {
      "inputs": [
        {
          "internalType": "address",
          "name": "",
          "type": "address"
        }
      ],
      "name": "InspectorMapping",
      "outputs": [
        {
          "internalType": "uint256",
          "name": "id",
          "type": "uint256"
        },
        {
          "internalType": "address",
          "name": "_addr",
          "type": "address"
        },
        {
          "internalType": "string",
          "name": "name",
          "type": "string"
        },
        {
          "internalType": "uint256",
          "name": "age",
          "type": "uint256"
        },
        {
          "internalType": "string",
          "name": "designation",
          "type": "string"
        },
        {
          "internalType": "string",
          "name": "city",
          "type": "string"
        }
      ],
      "stateMutability": "view",
      "type": "function",
      "constant": true
    },
    {
      "inputs": [
        {
          "internalType": "uint256",
          "name": "",
          "type": "uint256"
        }
      ],
      "name": "LandRequestMapping",
      "outputs": [
        {
          "internalType": "uint256",
          "name": "reqId",
          "type": "uint256"
        },
        {
          "internalType": "address payable",
          "name": "sellerId",
          "type": "address"
        },
        {
          "internalType": "address payable",
          "name": "buyerId",
          "type": "address"
        },
        {
          "internalType": "uint256",
          "name": "landId",
          "type": "uint256"
        },
        {
          "internalType": "enum LandRegistery.reqStatus",
          "name": "requestStatus",
          "type": "uint8"
        },
        {
          "internalType": "bool",
          "name": "isPaymentDone",
          "type": "bool"
        }
      ],
      "stateMutability": "view",
      "type": "function",
      "constant": true
    },
    {
      "inputs": [
        {
          "internalType": "address",
          "name": "",
          "type": "address"
        }
      ],
      "name": "UserMapping",
      "outputs": [
        {
          "internalType": "address",
          "name": "id",
          "type": "address"
        },
        {
          "internalType": "string",
          "name": "name",
          "type": "string"
        },
        {
          "internalType": "uint256",
          "name": "age",
          "type": "uint256"
        },
        {
          "internalType": "string",
          "name": "city",
          "type": "string"
        },
        {
          "internalType": "string",
          "name": "aadharNumber",
          "type": "string"
        },
        {
          "internalType": "string",
          "name": "panNumber",
          "type": "string"
        },
        {
          "internalType": "string",
          "name": "document",
          "type": "string"
        },
        {
          "internalType": "string",
          "name": "email",
          "type": "string"
        },
        {
          "internalType": "bool",
          "name": "isUserVerified",
          "type": "bool"
        }
      ],
      "stateMutability": "view",
      "type": "function",
      "constant": true
    },
    {
      "inputs": [],
      "name": "documentId",
      "outputs": [
        {
          "internalType": "uint256",
          "name": "",
          "type": "uint256"
        }
      ],
      "stateMutability": "view",
      "type": "function",
      "constant": true
    },
    {
      "inputs": [
        {
          "internalType": "uint256",
          "name": "",
          "type": "uint256"
        }
      ],
      "name": "lands",
      "outputs": [
        {
          "internalType": "uint256",
          "name": "id",
          "type": "uint256"
        },
        {
          "internalType": "uint256",
          "name": "area",
          "type": "uint256"
        },
        {
          "internalType": "string",
          "name": "landAddress",
          "type": "string"
        },
        {
          "internalType": "uint256",
          "name": "landPrice",
          "type": "uint256"
        },
        {
          "internalType": "string",
          "name": "allLatitudeLongitude",
          "type": "string"
        },
        {
          "internalType": "uint256",
          "name": "propertyPID",
          "type": "uint256"
        },
        {
          "internalType": "string",
          "name": "physicalSurveyNumber",
          "type": "string"
        },
        {
          "internalType": "string",
          "name": "document",
          "type": "string"
        },
        {
          "internalType": "bool",
          "name": "isforSell",
          "type": "bool"
        },
        {
          "internalType": "address payable",
          "name": "ownerAddress",
          "type": "address"
        },
        {
          "internalType": "bool",
          "name": "isLandVerified",
          "type": "bool"
        }
      ],
      "stateMutability": "view",
      "type": "function",
      "constant": true
    },
    {
      "inputs": [],
      "name": "landsCount",
      "outputs": [
        {
          "internalType": "uint256",
          "name": "",
          "type": "uint256"
        }
      ],
      "stateMutability": "view",
      "type": "function",
      "constant": true
    },
    {
      "inputs": [],
      "name": "userCount",
      "outputs": [
        {
          "internalType": "uint256",
          "name": "",
          "type": "uint256"
        }
      ],
      "stateMutability": "view",
      "type": "function",
      "constant": true
    },
    {
      "inputs": [
        {
          "internalType": "address",
          "name": "_addr",
          "type": "address"
        }
      ],
      "name": "isContractOwner",
      "outputs": [
        {
          "internalType": "bool",
          "name": "",
          "type": "bool"
        }
      ],
      "stateMutability": "view",
      "type": "function",
      "constant": true
    },
    {
      "inputs": [
        {
          "internalType": "address",
          "name": "_addr",
          "type": "address"
        }
      ],
      "name": "changeContractOwner",
      "outputs": [],
      "stateMutability": "nonpayable",
      "type": "function"
    },
    {
      "inputs": [
        {
          "internalType": "address",
          "name": "_addr",
          "type": "address"
        },
        {
          "internalType": "string",
          "name": "_name",
          "type": "string"
        },
        {
          "internalType": "uint256",
          "name": "_age",
          "type": "uint256"
        },
        {
          "internalType": "string",
          "name": "_designation",
          "type": "string"
        },
        {
          "internalType": "string",
          "name": "_city",
          "type": "string"
        }
      ],
      "name": "addLandInspector",
      "outputs": [
        {
          "internalType": "bool",
          "name": "",
          "type": "bool"
        }
      ],
      "stateMutability": "nonpayable",
      "type": "function"
    },
    {
      "inputs": [],
      "name": "ReturnAllLandIncpectorList",
      "outputs": [
        {
          "internalType": "address[]",
          "name": "",
          "type": "address[]"
        }
      ],
      "stateMutability": "view",
      "type": "function",
      "constant": true
    },
    {
      "inputs": [
        {
          "internalType": "address",
          "name": "_addr",
          "type": "address"
        }
      ],
      "name": "removeLandInspector",
      "outputs": [],
      "stateMutability": "nonpayable",
      "type": "function"
    },
    {
      "inputs": [
        {
          "internalType": "address",
          "name": "_id",
          "type": "address"
        }
      ],
      "name": "isLandInspector",
      "outputs": [
        {
          "internalType": "bool",
          "name": "",
          "type": "bool"
        }
      ],
      "stateMutability": "view",
      "type": "function",
      "constant": true
    },
    {
      "inputs": [
        {
          "internalType": "address",
          "name": "_addr",
          "type": "address"
        }
      ],
      "name": "isUserRegistered",
      "outputs": [
        {
          "internalType": "bool",
          "name": "",
          "type": "bool"
        }
      ],
      "stateMutability": "view",
      "type": "function",
      "constant": true
    },
    {
      "inputs": [
        {
          "internalType": "string",
          "name": "_name",
          "type": "string"
        },
        {
          "internalType": "uint256",
          "name": "_age",
          "type": "uint256"
        },
        {
          "internalType": "string",
          "name": "_city",
          "type": "string"
        },
        {
          "internalType": "string",
          "name": "_aadharNumber",
          "type": "string"
        },
        {
          "internalType": "string",
          "name": "_panNumber",
          "type": "string"
        },
        {
          "internalType": "string",
          "name": "_document",
          "type": "string"
        },
        {
          "internalType": "string",
          "name": "_email",
          "type": "string"
        }
      ],
      "name": "registerUser",
      "outputs": [],
      "stateMutability": "nonpayable",
      "type": "function"
    },
    {
      "inputs": [
        {
          "internalType": "address",
          "name": "_userId",
          "type": "address"
        }
      ],
      "name": "verifyUser",
      "outputs": [],
      "stateMutability": "nonpayable",
      "type": "function"
    },
    {
      "inputs": [
        {
          "internalType": "address",
          "name": "id",
          "type": "address"
        }
      ],
      "name": "isUserVerified",
      "outputs": [
        {
          "internalType": "bool",
          "name": "",
          "type": "bool"
        }
      ],
      "stateMutability": "view",
      "type": "function",
      "constant": true
    },
    {
      "inputs": [],
      "name": "ReturnAllUserList",
      "outputs": [
        {
          "internalType": "address[]",
          "name": "",
          "type": "address[]"
        }
      ],
      "stateMutability": "view",
      "type": "function",
      "constant": true
    },
    {
      "inputs": [
        {
          "internalType": "uint256",
          "name": "_area",
          "type": "uint256"
        },
        {
          "internalType": "string",
          "name": "_address",
          "type": "string"
        },
        {
          "internalType": "uint256",
          "name": "landprice",
          "type": "uint256"
        },
        {
          "internalType": "string",
          "name": "_allLatiLongi",
          "type": "string"
        },
        {
          "internalType": "uint256",
          "name": "_propertyPID",
          "type": "uint256"
        },
        {
          "internalType": "string",
          "name": "_surveyNum",
          "type": "string"
        },
        {
          "internalType": "string",
          "name": "_document",
          "type": "string"
        }
      ],
      "name": "addLand",
      "outputs": [],
      "stateMutability": "nonpayable",
      "type": "function"
    },
    {
      "inputs": [],
      "name": "ReturnAllLandList",
      "outputs": [
        {
          "internalType": "uint256[]",
          "name": "",
          "type": "uint256[]"
        }
      ],
      "stateMutability": "view",
      "type": "function",
      "constant": true
    },
    {
      "inputs": [
        {
          "internalType": "uint256",
          "name": "_id",
          "type": "uint256"
        }
      ],
      "name": "verifyLand",
      "outputs": [],
      "stateMutability": "nonpayable",
      "type": "function"
    },
    {
      "inputs": [
        {
          "internalType": "uint256",
          "name": "id",
          "type": "uint256"
        }
      ],
      "name": "isLandVerified",
      "outputs": [
        {
          "internalType": "bool",
          "name": "",
          "type": "bool"
        }
      ],
      "stateMutability": "view",
      "type": "function",
      "constant": true
    },
    {
      "inputs": [
        {
          "internalType": "address",
          "name": "id",
          "type": "address"
        }
      ],
      "name": "myAllLands",
      "outputs": [
        {
          "internalType": "uint256[]",
          "name": "",
          "type": "uint256[]"
        }
      ],
      "stateMutability": "view",
      "type": "function",
      "constant": true
    },
    {
      "inputs": [
        {
          "internalType": "uint256",
          "name": "id",
          "type": "uint256"
        }
      ],
      "name": "makeItforSell",
      "outputs": [],
      "stateMutability": "nonpayable",
      "type": "function"
    },
    {
      "inputs": [
        {
          "internalType": "uint256",
          "name": "_landId",
          "type": "uint256"
        }
      ],
      "name": "requestforBuy",
      "outputs": [],
      "stateMutability": "nonpayable",
      "type": "function"
    },
    {
      "inputs": [],
      "name": "myReceivedLandRequests",
      "outputs": [
        {
          "internalType": "uint256[]",
          "name": "",
          "type": "uint256[]"
        }
      ],
      "stateMutability": "view",
      "type": "function",
      "constant": true
    },
    {
      "inputs": [],
      "name": "mySentLandRequests",
      "outputs": [
        {
          "internalType": "uint256[]",
          "name": "",
          "type": "uint256[]"
        }
      ],
      "stateMutability": "view",
      "type": "function",
      "constant": true
    },
    {
      "inputs": [
        {
          "internalType": "uint256",
          "name": "_requestId",
          "type": "uint256"
        }
      ],
      "name": "acceptRequest",
      "outputs": [],
      "stateMutability": "nonpayable",
      "type": "function"
    },
    {
      "inputs": [
        {
          "internalType": "uint256",
          "name": "_requestId",
          "type": "uint256"
        }
      ],
      "name": "rejectRequest",
      "outputs": [],
      "stateMutability": "nonpayable",
      "type": "function"
    },
    {
      "inputs": [
        {
          "internalType": "uint256",
          "name": "id",
          "type": "uint256"
        }
      ],
      "name": "requesteStatus",
      "outputs": [
        {
          "internalType": "bool",
          "name": "",
          "type": "bool"
        }
      ],
      "stateMutability": "view",
      "type": "function",
      "constant": true
    },
    {
      "inputs": [
        {
          "internalType": "uint256",
          "name": "id",
          "type": "uint256"
        }
      ],
      "name": "landPrice",
      "outputs": [
        {
          "internalType": "uint256",
          "name": "",
          "type": "uint256"
        }
      ],
      "stateMutability": "view",
      "type": "function",
      "constant": true
    },
    {
      "inputs": [
        {
          "internalType": "uint256",
          "name": "id",
          "type": "uint256"
        }
      ],
      "name": "propertytax",
      "outputs": [
        {
          "internalType": "uint256",
          "name": "",
          "type": "uint256"
        }
      ],
      "stateMutability": "view",
      "type": "function",
      "constant": true
    },
    {
      "inputs": [
        {
          "internalType": "uint256",
          "name": "_requestId",
          "type": "uint256"
        }
      ],
      "name": "makePayment",
      "outputs": [],
      "stateMutability": "payable",
      "type": "function",
      "payable": true
    },
    {
      "inputs": [],
      "name": "returnPaymentDoneList",
      "outputs": [
        {
          "internalType": "uint256[]",
          "name": "",
          "type": "uint256[]"
        }
      ],
      "stateMutability": "view",
      "type": "function",
      "constant": true
    },
    {
      "inputs": [
        {
          "internalType": "uint256",
          "name": "_requestId",
          "type": "uint256"
        },
        {
          "internalType": "string",
          "name": "documentUrl",
          "type": "string"
        }
      ],
      "name": "transferOwnership",
      "outputs": [
        {
          "internalType": "bool",
          "name": "",
          "type": "bool"
        }
      ],
      "stateMutability": "nonpayable",
      "type": "function"
    },
    {
      "inputs": [
        {
          "internalType": "address payable",
          "name": "_reveiver",
          "type": "address"
        }
      ],
      "name": "makePaymentTestFun",
      "outputs": [],
      "stateMutability": "payable",
      "type": "function",
      "payable": true
    }
  ],
  "bytecode": "0x608060405234801561001057600080fd5b50336000806101000a81548173ffffffffffffffffffffffffffffffffffffffff021916908373ffffffffffffffffffffffffffffffffffffffff1602179055506143e8806100606000396000f3fe60806040526004361061020f5760003560e01c8063a846fc8f11610118578063d61ff68c116100a0578063e165af871161006f578063e165af8714610805578063e261f1e514610842578063edfbe24714610889578063f9c43bdf146108b2578063fa024549146108db5761020f565b8063d61ff68c14610709578063d72ca9ec1461074e578063d8513de41461078b578063de117688146107c85761020f565b8063c6dcdc37116100e7578063c6dcdc3714610612578063ccfdc19b1461064f578063d196ebf214610678578063d251839b146106b5578063d3b368c0146106e05761020f565b8063a846fc8f1461053f578063ace417e01461056a578063b10a30ed146105a7578063c26e11eb146105e95761020f565b80635114cb521161019b5780636e494d6b1161016a5780636e494d6b146104675780637517e00f146104a457806378f7c83f146104cd578063995a8d96146104f85780639c32e3b4146105145761020f565b80635114cb52146103a1578063553a998d146103bd57806364efa002146103e85780636cbf6cf81461042a5761020f565b80632d7788db116101e25780632d7788db146102d25780633ead67b5146102fb578063499701b2146103245780634ba1f0981461034f5780634d813120146103785761020f565b806307973ccf14610214578063163f75221461023f5780631c9afd0f1461027c57806323393d77146102a7575b600080fd5b34801561022057600080fd5b50610229610918565b6040516102369190613dba565b60405180910390f35b34801561024b57600080fd5b506102666004803603810190610261919061363c565b61091e565b6040516102739190613d3f565b60405180910390f35b34801561028857600080fd5b50610291610985565b60405161029e9190613dba565b60405180910390f35b3480156102b357600080fd5b506102bc61098b565b6040516102c99190613d1d565b60405180910390f35b3480156102de57600080fd5b506102f960048036038101906102f4919061387b565b6109f5565b005b34801561030757600080fd5b50610322600480360381019061031d919061363c565b610acb565b005b34801561033057600080fd5b50610339610b9c565b6040516103469190613d1d565b60405180910390f35b34801561035b57600080fd5b506103766004803603810190610371919061387b565b610c31565b005b34801561038457600080fd5b5061039f600480360381019061039a919061363c565b610d07565b005b6103bb60048036038101906103b6919061387b565b610d77565b005b3480156103c957600080fd5b506103d2610fe9565b6040516103df9190613cfb565b60405180910390f35b3480156103f457600080fd5b5061040f600480360381019061040a919061363c565b611089565b60405161042196959493929190613e36565b60405180910390f35b34801561043657600080fd5b50610451600480360381019061044c919061387b565b61127d565b60405161045e9190613d3f565b60405180910390f35b34801561047357600080fd5b5061048e6004803603810190610489919061387b565b6112aa565b60405161049b9190613dba565b60405180910390f35b3480156104b057600080fd5b506104cb60048036038101906104c6919061363c565b6112e2565b005b3480156104d957600080fd5b506104e26116d8565b6040516104ef9190613dba565b60405180910390f35b610512600480360381019061050d9190613665565b6116de565b005b34801561052057600080fd5b50610529611728565b6040516105369190613d1d565b60405180910390f35b34801561054b57600080fd5b506105546117bd565b6040516105619190613d1d565b60405180910390f35b34801561057657600080fd5b50610591600480360381019061058c919061363c565b611827565b60405161059e9190613d3f565b60405180910390f35b3480156105b357600080fd5b506105ce60048036038101906105c9919061387b565b611880565b6040516105e096959493929190613dd5565b60405180910390f35b3480156105f557600080fd5b50610610600480360381019061060b919061387b565b611916565b005b34801561061e57600080fd5b506106396004803603810190610634919061368e565b6119b6565b6040516106469190613d3f565b60405180910390f35b34801561065b57600080fd5b50610676600480360381019061067191906138f8565b611c80565b005b34801561068457600080fd5b5061069f600480360381019061069a919061363c565b611f00565b6040516106ac9190613d1d565b60405180910390f35b3480156106c157600080fd5b506106ca611f97565b6040516106d79190613cfb565b60405180910390f35b3480156106ec57600080fd5b506107076004803603810190610702919061387b565b612037565b005b34801561071557600080fd5b50610730600480360381019061072b919061363c565b612378565b60405161074599989796959493929190613c44565b60405180910390f35b34801561075a57600080fd5b506107756004803603810190610770919061387b565b612723565b6040516107829190613dba565b60405180910390f35b34801561079757600080fd5b506107b260048036038101906107ad919061387b565b612743565b6040516107bf9190613d3f565b60405180910390f35b3480156107d457600080fd5b506107ef60048036038101906107ea919061363c565b612770565b6040516107fc9190613d3f565b60405180910390f35b34801561081157600080fd5b5061082c6004803603810190610827919061363c565b6127da565b6040516108399190613d3f565b60405180910390f35b34801561084e57600080fd5b506108696004803603810190610864919061387b565b612841565b6040516108809b9a99989796959493929190613eac565b60405180910390f35b34801561089557600080fd5b506108b060048036038101906108ab919061374d565b612af5565b005b3480156108be57600080fd5b506108d960048036038101906108d4919061387b565b612e49565b005b3480156108e757600080fd5b5061090260048036038101906108fd91906138a4565b612e8d565b60405161090f9190613d3f565b60405180910390f35b60025481565b6000600c60008373ffffffffffffffffffffffffffffffffffffffff1673ffffffffffffffffffffffffffffffffffffffff16815260200190815260200160002060009054906101000a900460ff161561097b5760019050610980565b600090505b919050565b60035481565b606060126000600181526020019081526020016000208054806020026020016040519081016040528092919081815260200182805480156109eb57602002820191906000526020600020905b8154815260200190600101908083116109d7575b5050505050905090565b3373ffffffffffffffffffffffffffffffffffffffff16600f600083815260200190815260200160002060010160009054906101000a900473ffffffffffffffffffffffffffffffffffffffff1673ffffffffffffffffffffffffffffffffffffffff1614610a6357600080fd5b6002600f600083815260200190815260200160002060040160006101000a81548160ff02191690836004811115610ac3577f4e487b7100000000000000000000000000000000000000000000000000000000600052602160045260246000fd5b021790555050565b60008054906101000a900473ffffffffffffffffffffffffffffffffffffffff1673ffffffffffffffffffffffffffffffffffffffff163373ffffffffffffffffffffffffffffffffffffffff1614610b59576040517f08c379a0000000000000000000000000000000000000000000000000000000008152600401610b5090613d7a565b60405180910390fd5b806000806101000a81548173ffffffffffffffffffffffffffffffffffffffff021916908373ffffffffffffffffffffffffffffffffffffffff16021790555050565b6060601060003373ffffffffffffffffffffffffffffffffffffffff1673ffffffffffffffffffffffffffffffffffffffff168152602001908152602001600020805480602002602001604051908101604052809291908181526020018280548015610c2757602002820191906000526020600020905b815481526020019060010190808311610c13575b5050505050905090565b3373ffffffffffffffffffffffffffffffffffffffff16600f600083815260200190815260200160002060010160009054906101000a900473ffffffffffffffffffffffffffffffffffffffff1673ffffffffffffffffffffffffffffffffffffffff1614610c9f57600080fd5b6001600f600083815260200190815260200160002060040160006101000a81548160ff02191690836004811115610cff577f4e487b7100000000000000000000000000000000000000000000000000000000600052602160045260246000fd5b021790555050565b610d10336127da565b610d1957600080fd5b6001600960008373ffffffffffffffffffffffffffffffffffffffff1673ffffffffffffffffffffffffffffffffffffffff16815260200190815260200160002060080160006101000a81548160ff02191690831515021790555050565b3373ffffffffffffffffffffffffffffffffffffffff16600f600083815260200190815260200160002060020160009054906101000a900473ffffffffffffffffffffffffffffffffffffffff1673ffffffffffffffffffffffffffffffffffffffff16148015610e7b575060016004811115610e1d577f4e487b7100000000000000000000000000000000000000000000000000000000600052602160045260246000fd5b600f600083815260200190815260200160002060040160009054906101000a900460ff166004811115610e79577f4e487b7100000000000000000000000000000000000000000000000000000000600052602160045260246000fd5b145b610e8457600080fd5b6003600f600083815260200190815260200160002060040160006101000a81548160ff02191690836004811115610ee4577f4e487b7100000000000000000000000000000000000000000000000000000000600052602160045260246000fd5b0217905550600e6000600f600084815260200190815260200160002060030154815260200190815260200160002060080160019054906101000a900473ffffffffffffffffffffffffffffffffffffffff1673ffffffffffffffffffffffffffffffffffffffff166108fc349081150290604051600060405180830381858888f19350505050158015610f7b573d6000803e3d6000fd5b506001600f600083815260200190815260200160002060040160016101000a81548160ff021916908315150217905550601360006001815260200190815260200160002081908060018154018082558091505060019003906000526020600020016000909190919091505550565b6060600b60006001815260200190815260200160002080548060200260200160405190810160405280929190818152602001828054801561107f57602002820191906000526020600020905b8160009054906101000a900473ffffffffffffffffffffffffffffffffffffffff1673ffffffffffffffffffffffffffffffffffffffff1681526020019060010190808311611035575b5050505050905090565b60066020528060005260406000206000915090508060000154908060010160009054906101000a900473ffffffffffffffffffffffffffffffffffffffff16908060020180546110d8906141e2565b80601f0160208091040260200160405190810160405280929190818152602001828054611104906141e2565b80156111515780601f1061112657610100808354040283529160200191611151565b820191906000526020600020905b81548152906001019060200180831161113457829003601f168201915b50505050509080600301549080600401805461116c906141e2565b80601f0160208091040260200160405190810160405280929190818152602001828054611198906141e2565b80156111e55780601f106111ba576101008083540402835291602001916111e5565b820191906000526020600020905b8154815290600101906020018083116111c857829003601f168201915b5050505050908060050180546111fa906141e2565b80601f0160208091040260200160405190810160405280929190818152602001828054611226906141e2565b80156112735780601f1061124857610100808354040283529160200191611273565b820191906000526020600020905b81548152906001019060200180831161125657829003601f168201915b5050505050905086565b6000600e600083815260200190815260200160002060080160159054906101000a900460ff169050919050565b600060016005600e6000858152602001908152602001600020600301546112d19190614062565b6112db9190614093565b9050919050565b60008054906101000a900473ffffffffffffffffffffffffffffffffffffffff1673ffffffffffffffffffffffffffffffffffffffff163373ffffffffffffffffffffffffffffffffffffffff1614611370576040517f08c379a000000000000000000000000000000000000000000000000000000000815260040161136790613d9a565b60405180910390fd5b600860008273ffffffffffffffffffffffffffffffffffffffff1673ffffffffffffffffffffffffffffffffffffffff16815260200190815260200160002060009054906101000a900460ff166113fc576040517f08c379a00000000000000000000000000000000000000000000000000000000081526004016113f390613d5a565b60405180910390fd5b6000600860008373ffffffffffffffffffffffffffffffffffffffff1673ffffffffffffffffffffffffffffffffffffffff16815260200190815260200160002060006101000a81548160ff0219169083151502179055506000600760006001815260200190815260200160002080549050905060005b818110156116d3578273ffffffffffffffffffffffffffffffffffffffff16600760006001815260200190815260200160002082815481106114de577f4e487b7100000000000000000000000000000000000000000000000000000000600052603260045260246000fd5b9060005260206000200160009054906101000a900473ffffffffffffffffffffffffffffffffffffffff1673ffffffffffffffffffffffffffffffffffffffff1614156116c057600760006001815260200190815260200160002060018361154691906140ed565b8154811061157d577f4e487b7100000000000000000000000000000000000000000000000000000000600052603260045260246000fd5b9060005260206000200160009054906101000a900473ffffffffffffffffffffffffffffffffffffffff16600760006001815260200190815260200160002082815481106115f4577f4e487b7100000000000000000000000000000000000000000000000000000000600052603260045260246000fd5b9060005260206000200160006101000a81548173ffffffffffffffffffffffffffffffffffffffff021916908373ffffffffffffffffffffffffffffffffffffffff1602179055506007600060018152602001908152602001600020805480611686577f4e487b7100000000000000000000000000000000000000000000000000000000600052603160045260246000fd5b6001900381819060005260206000200160006101000a81549073ffffffffffffffffffffffffffffffffffffffff021916905590556116d3565b80806116cb90614214565b915050611473565b505050565b60045481565b8073ffffffffffffffffffffffffffffffffffffffff166108fc349081150290604051600060405180830381858888f19350505050158015611724573d6000803e3d6000fd5b5050565b6060601160003373ffffffffffffffffffffffffffffffffffffffff1673ffffffffffffffffffffffffffffffffffffffff1681526020019081526020016000208054806020026020016040519081016040528092919081815260200182805480156117b357602002820191906000526020600020905b81548152602001906001019080831161179f575b5050505050905090565b6060601360006001815260200190815260200160002080548060200260200160405190810160405280929190818152602001828054801561181d57602002820191906000526020600020905b815481526020019060010190808311611809575b5050505050905090565b6000600960008373ffffffffffffffffffffffffffffffffffffffff1673ffffffffffffffffffffffffffffffffffffffff16815260200190815260200160002060080160009054906101000a900460ff169050919050565b600f6020528060005260406000206000915090508060000154908060010160009054906101000a900473ffffffffffffffffffffffffffffffffffffffff16908060020160009054906101000a900473ffffffffffffffffffffffffffffffffffffffff16908060030154908060040160009054906101000a900460ff16908060040160019054906101000a900460ff16905086565b3373ffffffffffffffffffffffffffffffffffffffff16600e600083815260200190815260200160002060080160019054906101000a900473ffffffffffffffffffffffffffffffffffffffff1673ffffffffffffffffffffffffffffffffffffffff161461198457600080fd5b6001600e600083815260200190815260200160002060080160006101000a81548160ff02191690831515021790555050565b60003373ffffffffffffffffffffffffffffffffffffffff1660008054906101000a900473ffffffffffffffffffffffffffffffffffffffff1673ffffffffffffffffffffffffffffffffffffffff1614611a145760009050611c77565b3373ffffffffffffffffffffffffffffffffffffffff1660008054906101000a900473ffffffffffffffffffffffffffffffffffffffff1673ffffffffffffffffffffffffffffffffffffffff1614611a6c57600080fd5b6001600860008873ffffffffffffffffffffffffffffffffffffffff1673ffffffffffffffffffffffffffffffffffffffff16815260200190815260200160002060006101000a81548160ff0219169083151502179055506007600060018152602001908152602001600020869080600181540180825580915050600190039060005260206000200160009091909190916101000a81548173ffffffffffffffffffffffffffffffffffffffff021916908373ffffffffffffffffffffffffffffffffffffffff1602179055506040518060c0016040528060015481526020018773ffffffffffffffffffffffffffffffffffffffff16815260200186815260200185815260200184815260200183815250600660008873ffffffffffffffffffffffffffffffffffffffff1673ffffffffffffffffffffffffffffffffffffffff1681526020019081526020016000206000820151816000015560208201518160010160006101000a81548173ffffffffffffffffffffffffffffffffffffffff021916908373ffffffffffffffffffffffffffffffffffffffff1602179055506040820151816002019080519060200190611c2a9291906134f2565b50606082015181600301556080820151816004019080519060200190611c519291906134f2565b5060a0820151816005019080519060200190611c6e9291906134f2565b50905050600190505b95945050505050565b611c8933611827565b611c9257600080fd5b60036000815480929190611ca590614214565b919050555060405180610160016040528060035481526020018881526020018781526020018681526020018581526020018481526020018381526020018281526020016000151581526020013373ffffffffffffffffffffffffffffffffffffffff16815260200160001515815250600e6000600354815260200190815260200160002060008201518160000155602082015181600101556040820151816002019080519060200190611d599291906134f2565b50606082015181600301556080820151816004019080519060200190611d809291906134f2565b5060a0820151816005015560c0820151816006019080519060200190611da79291906134f2565b5060e0820151816007019080519060200190611dc49291906134f2565b506101008201518160080160006101000a81548160ff0219169083151502179055506101208201518160080160016101000a81548173ffffffffffffffffffffffffffffffffffffffff021916908373ffffffffffffffffffffffffffffffffffffffff1602179055506101408201518160080160156101000a81548160ff021916908315150217905550905050600d60003373ffffffffffffffffffffffffffffffffffffffff1673ffffffffffffffffffffffffffffffffffffffff16815260200190815260200160002060035490806001815401808255809150506001900390600052602060002001600090919091909150556012600060018152602001908152602001600020600354908060018154018082558091505060019003906000526020600020016000909190919091505550505050505050565b6060600d60008373ffffffffffffffffffffffffffffffffffffffff1673ffffffffffffffffffffffffffffffffffffffff168152602001908152602001600020805480602002602001604051908101604052809291908181526020018280548015611f8b57602002820191906000526020600020905b815481526020019060010190808311611f77575b50505050509050919050565b6060600760006001815260200190815260200160002080548060200260200160405190810160405280929190818152602001828054801561202d57602002820191906000526020600020905b8160009054906101000a900473ffffffffffffffffffffffffffffffffffffffff1673ffffffffffffffffffffffffffffffffffffffff1681526020019060010190808311611fe3575b5050505050905090565b61204033611827565b801561205157506120508161127d565b5b61205a57600080fd5b6005600081548092919061206d90614214565b91905055506040518060c001604052806005548152602001600e600084815260200190815260200160002060080160019054906101000a900473ffffffffffffffffffffffffffffffffffffffff1673ffffffffffffffffffffffffffffffffffffffff1681526020013373ffffffffffffffffffffffffffffffffffffffff16815260200182815260200160006004811115612133577f4e487b7100000000000000000000000000000000000000000000000000000000600052602160045260246000fd5b815260200160001515815250600f600060055481526020019081526020016000206000820151816000015560208201518160010160006101000a81548173ffffffffffffffffffffffffffffffffffffffff021916908373ffffffffffffffffffffffffffffffffffffffff16021790555060408201518160020160006101000a81548173ffffffffffffffffffffffffffffffffffffffff021916908373ffffffffffffffffffffffffffffffffffffffff1602179055506060820151816003015560808201518160040160006101000a81548160ff02191690836004811115612247577f4e487b7100000000000000000000000000000000000000000000000000000000600052602160045260246000fd5b021790555060a08201518160040160016101000a81548160ff02191690831515021790555090505060106000600e600084815260200190815260200160002060080160019054906101000a900473ffffffffffffffffffffffffffffffffffffffff1673ffffffffffffffffffffffffffffffffffffffff1673ffffffffffffffffffffffffffffffffffffffff1681526020019081526020016000206005549080600181540180825580915050600190039060005260206000200160009091909190915055601160003373ffffffffffffffffffffffffffffffffffffffff1673ffffffffffffffffffffffffffffffffffffffff168152602001908152602001600020600554908060018154018082558091505060019003906000526020600020016000909190919091505550565b60096020528060005260406000206000915090508060000160009054906101000a900473ffffffffffffffffffffffffffffffffffffffff16908060010180546123c1906141e2565b80601f01602080910402602001604051908101604052809291908181526020018280546123ed906141e2565b801561243a5780601f1061240f5761010080835404028352916020019161243a565b820191906000526020600020905b81548152906001019060200180831161241d57829003601f168201915b505050505090806002015490806003018054612455906141e2565b80601f0160208091040260200160405190810160405280929190818152602001828054612481906141e2565b80156124ce5780601f106124a3576101008083540402835291602001916124ce565b820191906000526020600020905b8154815290600101906020018083116124b157829003601f168201915b5050505050908060040180546124e3906141e2565b80601f016020809104026020016040519081016040528092919081815260200182805461250f906141e2565b801561255c5780601f106125315761010080835404028352916020019161255c565b820191906000526020600020905b81548152906001019060200180831161253f57829003601f168201915b505050505090806005018054612571906141e2565b80601f016020809104026020016040519081016040528092919081815260200182805461259d906141e2565b80156125ea5780601f106125bf576101008083540402835291602001916125ea565b820191906000526020600020905b8154815290600101906020018083116125cd57829003601f168201915b5050505050908060060180546125ff906141e2565b80601f016020809104026020016040519081016040528092919081815260200182805461262b906141e2565b80156126785780601f1061264d57610100808354040283529160200191612678565b820191906000526020600020905b81548152906001019060200180831161265b57829003601f168201915b50505050509080600701805461268d906141e2565b80601f01602080910402602001604051908101604052809291908181526020018280546126b9906141e2565b80156127065780601f106126db57610100808354040283529160200191612706565b820191906000526020600020905b8154815290600101906020018083116126e957829003601f168201915b5050505050908060080160009054906101000a900460ff16905089565b6000600e6000838152602001908152602001600020600301549050919050565b6000600f600083815260200190815260200160002060040160019054906101000a900460ff169050919050565b60008060009054906101000a900473ffffffffffffffffffffffffffffffffffffffff1673ffffffffffffffffffffffffffffffffffffffff168273ffffffffffffffffffffffffffffffffffffffff1614156127d057600190506127d5565b600090505b919050565b6000600860008373ffffffffffffffffffffffffffffffffffffffff1673ffffffffffffffffffffffffffffffffffffffff16815260200190815260200160002060009054906101000a900460ff1615612837576001905061283c565b600090505b919050565b600e602052806000526040600020600091509050806000015490806001015490806002018054612870906141e2565b80601f016020809104026020016040519081016040528092919081815260200182805461289c906141e2565b80156128e95780601f106128be576101008083540402835291602001916128e9565b820191906000526020600020905b8154815290600101906020018083116128cc57829003601f168201915b505050505090806003015490806004018054612904906141e2565b80601f0160208091040260200160405190810160405280929190818152602001828054612930906141e2565b801561297d5780601f106129525761010080835404028352916020019161297d565b820191906000526020600020905b81548152906001019060200180831161296057829003601f168201915b505050505090806005015490806006018054612998906141e2565b80601f01602080910402602001604051908101604052809291908181526020018280546129c4906141e2565b8015612a115780601f106129e657610100808354040283529160200191612a11565b820191906000526020600020905b8154815290600101906020018083116129f457829003601f168201915b505050505090806007018054612a26906141e2565b80601f0160208091040260200160405190810160405280929190818152602001828054612a52906141e2565b8015612a9f5780601f10612a7457610100808354040283529160200191612a9f565b820191906000526020600020905b815481529060010190602001808311612a8257829003601f168201915b5050505050908060080160009054906101000a900460ff16908060080160019054906101000a900473ffffffffffffffffffffffffffffffffffffffff16908060080160159054906101000a900460ff1690508b565b600c60003373ffffffffffffffffffffffffffffffffffffffff1673ffffffffffffffffffffffffffffffffffffffff16815260200190815260200160002060009054906101000a900460ff1615612b4c57600080fd5b6001600c60003373ffffffffffffffffffffffffffffffffffffffff1673ffffffffffffffffffffffffffffffffffffffff16815260200190815260200160002060006101000a81548160ff02191690831515021790555060026000815480929190612bb790614214565b9190505550600b600060018152602001908152602001600020339080600181540180825580915050600190039060005260206000200160009091909190916101000a81548173ffffffffffffffffffffffffffffffffffffffff021916908373ffffffffffffffffffffffffffffffffffffffff16021790555033600a6000600254815260200190815260200160002060006101000a81548173ffffffffffffffffffffffffffffffffffffffff021916908373ffffffffffffffffffffffffffffffffffffffff1602179055506040518061012001604052803373ffffffffffffffffffffffffffffffffffffffff16815260200188815260200187815260200186815260200185815260200184815260200183815260200182815260200160001515815250600960003373ffffffffffffffffffffffffffffffffffffffff1673ffffffffffffffffffffffffffffffffffffffff16815260200190815260200160002060008201518160000160006101000a81548173ffffffffffffffffffffffffffffffffffffffff021916908373ffffffffffffffffffffffffffffffffffffffff1602179055506020820151816001019080519060200190612d809291906134f2565b50604082015181600201556060820151816003019080519060200190612da79291906134f2565b506080820151816004019080519060200190612dc49291906134f2565b5060a0820151816005019080519060200190612de19291906134f2565b5060c0820151816006019080519060200190612dfe9291906134f2565b5060e0820151816007019080519060200190612e1b9291906134f2565b506101008201518160080160006101000a81548160ff02191690831515021790555090505050505050505050565b612e52336127da565b612e5b57600080fd5b6001600e600083815260200190815260200160002060080160156101000a81548160ff02191690831515021790555050565b6000612e98336127da565b612ea157600080fd5b60001515600f600085815260200190815260200160002060040160019054906101000a900460ff1615151415612eda57600090506134ec565b60046000815480929190612eed90614214565b91905055506004600f600085815260200190815260200160002060040160006101000a81548160ff02191690836004811115612f52577f4e487b7100000000000000000000000000000000000000000000000000000000600052602160045260246000fd5b0217905550600d6000600f600086815260200190815260200160002060020160009054906101000a900473ffffffffffffffffffffffffffffffffffffffff1673ffffffffffffffffffffffffffffffffffffffff1673ffffffffffffffffffffffffffffffffffffffff168152602001908152602001600020600f60008581526020019081526020016000206003015490806001815401808255809150506001900390600052602060002001600090919091909150556000600d6000600f600087815260200190815260200160002060010160009054906101000a900473ffffffffffffffffffffffffffffffffffffffff1673ffffffffffffffffffffffffffffffffffffffff1673ffffffffffffffffffffffffffffffffffffffff16815260200190815260200160002080549050905060005b818110156133be57600f600086815260200190815260200160002060030154600d6000600f600089815260200190815260200160002060010160009054906101000a900473ffffffffffffffffffffffffffffffffffffffff1673ffffffffffffffffffffffffffffffffffffffff1673ffffffffffffffffffffffffffffffffffffffff1681526020019081526020016000208281548110613155577f4e487b7100000000000000000000000000000000000000000000000000000000600052603260045260246000fd5b906000526020600020015414156133ab57600d6000600f600088815260200190815260200160002060010160009054906101000a900473ffffffffffffffffffffffffffffffffffffffff1673ffffffffffffffffffffffffffffffffffffffff1673ffffffffffffffffffffffffffffffffffffffff1681526020019081526020016000206001836131e891906140ed565b8154811061321f577f4e487b7100000000000000000000000000000000000000000000000000000000600052603260045260246000fd5b9060005260206000200154600d6000600f600089815260200190815260200160002060010160009054906101000a900473ffffffffffffffffffffffffffffffffffffffff1673ffffffffffffffffffffffffffffffffffffffff1673ffffffffffffffffffffffffffffffffffffffff16815260200190815260200160002082815481106132d7577f4e487b7100000000000000000000000000000000000000000000000000000000600052603260045260246000fd5b9060005260206000200181905550600d6000600f600088815260200190815260200160002060010160009054906101000a900473ffffffffffffffffffffffffffffffffffffffff1673ffffffffffffffffffffffffffffffffffffffff1673ffffffffffffffffffffffffffffffffffffffff168152602001908152602001600020805480613390577f4e487b7100000000000000000000000000000000000000000000000000000000600052603160045260246000fd5b600190038181906000526020600020016000905590556133be565b80806133b690614214565b915050613089565b5082600e6000600f600088815260200190815260200160002060030154815260200190815260200160002060070190805190602001906133ff9291906134f2565b506000600e6000600f600088815260200190815260200160002060030154815260200190815260200160002060080160006101000a81548160ff021916908315150217905550600f600085815260200190815260200160002060020160009054906101000a900473ffffffffffffffffffffffffffffffffffffffff16600e6000600f600088815260200190815260200160002060030154815260200190815260200160002060080160016101000a81548173ffffffffffffffffffffffffffffffffffffffff021916908373ffffffffffffffffffffffffffffffffffffffff16021790555060019150505b92915050565b8280546134fe906141e2565b90600052602060002090601f0160209004810192826135205760008555613567565b82601f1061353957805160ff1916838001178555613567565b82800160010185558215613567579182015b8281111561356657825182559160200191906001019061354b565b5b5090506135749190613578565b5090565b5b80821115613591576000816000905550600101613579565b5090565b60006135a86135a384613fa4565b613f73565b9050828152602081018484840111156135c057600080fd5b6135cb8482856141a0565b509392505050565b6000813590506135e28161436d565b92915050565b6000813590506135f781614384565b92915050565b600082601f83011261360e57600080fd5b813561361e848260208601613595565b91505092915050565b6000813590506136368161439b565b92915050565b60006020828403121561364e57600080fd5b600061365c848285016135d3565b91505092915050565b60006020828403121561367757600080fd5b6000613685848285016135e8565b91505092915050565b600080600080600060a086880312156136a657600080fd5b60006136b4888289016135d3565b955050602086013567ffffffffffffffff8111156136d157600080fd5b6136dd888289016135fd565b94505060406136ee88828901613627565b935050606086013567ffffffffffffffff81111561370b57600080fd5b613717888289016135fd565b925050608086013567ffffffffffffffff81111561373457600080fd5b613740888289016135fd565b9150509295509295909350565b600080600080600080600060e0888a03121561376857600080fd5b600088013567ffffffffffffffff81111561378257600080fd5b61378e8a828b016135fd565b975050602061379f8a828b01613627565b965050604088013567ffffffffffffffff8111156137bc57600080fd5b6137c88a828b016135fd565b955050606088013567ffffffffffffffff8111156137e557600080fd5b6137f18a828b016135fd565b945050608088013567ffffffffffffffff81111561380e57600080fd5b61381a8a828b016135fd565b93505060a088013567ffffffffffffffff81111561383757600080fd5b6138438a828b016135fd565b92505060c088013567ffffffffffffffff81111561386057600080fd5b61386c8a828b016135fd565b91505092959891949750929550565b60006020828403121561388d57600080fd5b600061389b84828501613627565b91505092915050565b600080604083850312156138b757600080fd5b60006138c585828601613627565b925050602083013567ffffffffffffffff8111156138e257600080fd5b6138ee858286016135fd565b9150509250929050565b600080600080600080600060e0888a03121561391357600080fd5b60006139218a828b01613627565b975050602088013567ffffffffffffffff81111561393e57600080fd5b61394a8a828b016135fd565b965050604061395b8a828b01613627565b955050606088013567ffffffffffffffff81111561397857600080fd5b6139848a828b016135fd565b94505060806139958a828b01613627565b93505060a088013567ffffffffffffffff8111156139b257600080fd5b6139be8a828b016135fd565b92505060c088013567ffffffffffffffff8111156139db57600080fd5b6139e78a828b016135fd565b91505092959891949750929550565b6000613a028383613a35565b60208301905092915050565b6000613a1a8383613c26565b60208301905092915050565b613a2f81614133565b82525050565b613a3e81614121565b82525050565b613a4d81614121565b82525050565b6000613a5e82613ff4565b613a68818561402f565b9350613a7383613fd4565b8060005b83811015613aa4578151613a8b88826139f6565b9750613a9683614015565b925050600181019050613a77565b5085935050505092915050565b6000613abc82613fff565b613ac68185614040565b9350613ad183613fe4565b8060005b83811015613b02578151613ae98882613a0e565b9750613af483614022565b925050600181019050613ad5565b5085935050505092915050565b613b1881614145565b82525050565b613b278161418e565b82525050565b6000613b388261400a565b613b428185614051565b9350613b528185602086016141af565b613b5b81614348565b840191505092915050565b6000613b73601883614051565b91507f4c616e6420496e73706563746f72206e6f7420666f756e6400000000000000006000830152602082019050919050565b6000613bb3601983614051565b91507f796f7520617265206e6f7420636f6e74726163744f776e6572000000000000006000830152602082019050919050565b6000613bf3601983614051565b91507f596f7520617265206e6f7420636f6e74726163744f776e6572000000000000006000830152602082019050919050565b613c2f81614184565b82525050565b613c3e81614184565b82525050565b600061012082019050613c5a600083018c613a44565b8181036020830152613c6c818b613b2d565b9050613c7b604083018a613c35565b8181036060830152613c8d8189613b2d565b90508181036080830152613ca18188613b2d565b905081810360a0830152613cb58187613b2d565b905081810360c0830152613cc98186613b2d565b905081810360e0830152613cdd8185613b2d565b9050613ced610100830184613b0f565b9a9950505050505050505050565b60006020820190508181036000830152613d158184613a53565b905092915050565b60006020820190508181036000830152613d378184613ab1565b905092915050565b6000602082019050613d546000830184613b0f565b92915050565b60006020820190508181036000830152613d7381613b66565b9050919050565b60006020820190508181036000830152613d9381613ba6565b9050919050565b60006020820190508181036000830152613db381613be6565b9050919050565b6000602082019050613dcf6000830184613c35565b92915050565b600060c082019050613dea6000830189613c35565b613df76020830188613a26565b613e046040830187613a26565b613e116060830186613c35565b613e1e6080830185613b1e565b613e2b60a0830184613b0f565b979650505050505050565b600060c082019050613e4b6000830189613c35565b613e586020830188613a44565b8181036040830152613e6a8187613b2d565b9050613e796060830186613c35565b8181036080830152613e8b8185613b2d565b905081810360a0830152613e9f8184613b2d565b9050979650505050505050565b600061016082019050613ec2600083018e613c35565b613ecf602083018d613c35565b8181036040830152613ee1818c613b2d565b9050613ef0606083018b613c35565b8181036080830152613f02818a613b2d565b9050613f1160a0830189613c35565b81810360c0830152613f238188613b2d565b905081810360e0830152613f378187613b2d565b9050613f47610100830186613b0f565b613f55610120830185613a26565b613f63610140830184613b0f565b9c9b505050505050505050505050565b6000604051905081810181811067ffffffffffffffff82111715613f9a57613f99614319565b5b8060405250919050565b600067ffffffffffffffff821115613fbf57613fbe614319565b5b601f19601f8301169050602081019050919050565b6000819050602082019050919050565b6000819050602082019050919050565b600081519050919050565b600081519050919050565b600081519050919050565b6000602082019050919050565b6000602082019050919050565b600082825260208201905092915050565b600082825260208201905092915050565b600082825260208201905092915050565b600061406d82614184565b915061407883614184565b9250826140885761408761428c565b5b828204905092915050565b600061409e82614184565b91506140a983614184565b9250817fffffffffffffffffffffffffffffffffffffffffffffffffffffffffffffffff04831182151516156140e2576140e161425d565b5b828202905092915050565b60006140f882614184565b915061410383614184565b9250828210156141165761411561425d565b5b828203905092915050565b600061412c82614164565b9050919050565b600061413e82614164565b9050919050565b60008115159050919050565b600081905061415f82614359565b919050565b600073ffffffffffffffffffffffffffffffffffffffff82169050919050565b6000819050919050565b600061419982614151565b9050919050565b82818337600083830152505050565b60005b838110156141cd5780820151818401526020810190506141b2565b838111156141dc576000848401525b50505050565b600060028204905060018216806141fa57607f821691505b6020821081141561420e5761420d6142ea565b5b50919050565b600061421f82614184565b91507fffffffffffffffffffffffffffffffffffffffffffffffffffffffffffffffff8214156142525761425161425d565b5b600182019050919050565b7f4e487b7100000000000000000000000000000000000000000000000000000000600052601160045260246000fd5b7f4e487b7100000000000000000000000000000000000000000000000000000000600052601260045260246000fd5b7f4e487b7100000000000000000000000000000000000000000000000000000000600052602160045260246000fd5b7f4e487b7100000000000000000000000000000000000000000000000000000000600052602260045260246000fd5b7f4e487b7100000000000000000000000000000000000000000000000000000000600052604160045260246000fd5b6000601f19601f8301169050919050565b6005811061436a576143696142bb565b5b50565b61437681614121565b811461438157600080fd5b50565b61438d81614133565b811461439857600080fd5b50565b6143a481614184565b81146143af57600080fd5b5056fea2646970667358221220c39ce9a00b6d2ff2bbb49b05aee21bb7fc69e31a9e99bd0621c8fbaeb713324864736f6c63430008000033",
  "immutableReferences": {},
  "source": "// SPDX-License-Identifier: MIT\npragma solidity ^0.8.0;\n\ncontract LandRegistery {\n    address contractOwner;\n\n    constructor()  {\n        contractOwner = msg.sender;\n    }\n\n    struct Landreg {\n        uint256 id;\n        uint256 area;\n        string landAddress;\n        uint256 landPrice;\n        string allLatitudeLongitude;\n        //string allLongitude;\n        uint256 propertyPID;\n        string physicalSurveyNumber;\n        string document;\n        bool isforSell;\n        address payable ownerAddress;\n        bool isLandVerified;\n    }\n\n    struct User {\n        address id;\n        string name;\n        uint256 age;\n        string city;\n        string aadharNumber;\n        string panNumber;\n        string document;\n        string email;\n        bool isUserVerified;\n    }\n\n    struct LandInspector {\n        uint256 id;\n        address _addr;\n        string name;\n        uint256 age;\n        string designation;\n        string city;\n    }\n\n    struct LandRequest {\n        uint256 reqId;\n        address payable sellerId;\n        address payable buyerId;\n        uint256 landId;\n        reqStatus requestStatus;\n        bool isPaymentDone;\n    }\n    enum reqStatus {\n        requested,\n        accepted,\n        rejected,\n        paymentdone,\n        commpleted\n    }\n\n    uint256 inspectorsCount;\n    uint256 public userCount;\n    uint256 public landsCount;\n    uint256 public documentId;\n    uint256 requestCount;\n\n    mapping(address => LandInspector) public InspectorMapping;\n    mapping(uint256 => address[]) allLandInspectorList;\n    mapping(address => bool) RegisteredInspectorMapping;\n    mapping(address => User) public UserMapping;\n    mapping(uint256 => address) AllUsers;\n    mapping(uint256 => address[]) allUsersList;\n    mapping(address => bool) RegisteredUserMapping;\n    mapping(address => uint256[]) MyLands;\n    mapping(uint256 => Landreg) public lands;\n    mapping(uint256 => LandRequest) public LandRequestMapping;\n    mapping(address => uint256[]) MyReceivedLandRequest;\n    mapping(address => uint256[]) MySentLandRequest;\n    mapping(uint256 => uint256[]) allLandList;\n    mapping(uint256 => uint256[]) paymentDoneList;\n\n    function isContractOwner(address _addr) public view returns (bool) {\n        if (_addr == contractOwner) return true;\n        else return false;\n    }\n\n    function changeContractOwner(address _addr) public {\n        require(msg.sender == contractOwner, \"you are not contractOwner\");\n\n        contractOwner = _addr;\n    }\n\n    //-----------------------------------------------LandInspector-----------------------------------------------\n\n    function addLandInspector(\n        address _addr,\n        string memory _name,\n        uint256 _age,\n        string memory _designation,\n        string memory _city\n    ) public returns (bool) {\n        if (contractOwner != msg.sender) return false;\n        require(contractOwner == msg.sender);\n        RegisteredInspectorMapping[_addr] = true;\n        allLandInspectorList[1].push(_addr);\n        InspectorMapping[_addr] = LandInspector(\n            inspectorsCount,\n            _addr,\n            _name,\n            _age,\n            _designation,\n            _city\n        );\n        return true;\n    }\n\n    function ReturnAllLandIncpectorList()\n        public\n        view\n        returns (address[] memory)\n    {\n        return allLandInspectorList[1];\n    }\n\n    function removeLandInspector(address _addr) public {\n        require(msg.sender == contractOwner, \"You are not contractOwner\");\n        require(RegisteredInspectorMapping[_addr], \"Land Inspector not found\");\n        RegisteredInspectorMapping[_addr] = false;\n\n        uint256 len = allLandInspectorList[1].length;\n        for (uint256 i = 0; i < len; i++) {\n            if (allLandInspectorList[1][i] == _addr) {\n                allLandInspectorList[1][i] = allLandInspectorList[1][len - 1];\n                allLandInspectorList[1].pop();\n                break;\n            }\n        }\n    }\n\n    function isLandInspector(address _id) public view returns (bool) {\n        if (RegisteredInspectorMapping[_id]) {\n            return true;\n        } else {\n            return false;\n        }\n    }\n\n    //-----------------------------------------------User-----------------------------------------------\n\n    function isUserRegistered(address _addr) public view returns (bool) {\n        if (RegisteredUserMapping[_addr]) {\n            return true;\n        } else {\n            return false;\n        }\n    }\n\n    function registerUser(\n        string memory _name,\n        uint256 _age,\n        string memory _city,\n        string memory _aadharNumber,\n        string memory _panNumber,\n        string memory _document,\n        string memory _email\n    ) public {\n        require(!RegisteredUserMapping[msg.sender]);\n\n        RegisteredUserMapping[msg.sender] = true;\n        userCount++;\n        allUsersList[1].push(msg.sender);\n        AllUsers[userCount] = msg.sender;\n        UserMapping[msg.sender] = User(\n            msg.sender,\n            _name,\n            _age,\n            _city,\n            _aadharNumber,\n            _panNumber,\n            _document,\n            _email,\n            false\n        );\n        //emit Registration(msg.sender);\n    }\n\n    function verifyUser(address _userId) public {\n        require(isLandInspector(msg.sender));\n        UserMapping[_userId].isUserVerified = true;\n    }\n\n    function isUserVerified(address id) public view returns (bool) {\n        return UserMapping[id].isUserVerified;\n    }\n\n    function ReturnAllUserList() public view returns (address[] memory) {\n        return allUsersList[1];\n    }\n\n    //-----------------------------------------------Land-----------------------------------------------\n    function addLand(\n        uint256 _area,\n        string memory _address,\n        uint256 landprice,\n        string memory _allLatiLongi,\n        uint256 _propertyPID,\n        string memory _surveyNum,\n        string memory _document\n    ) public {\n        require(isUserVerified(msg.sender));\n        landsCount++;\n        lands[landsCount] = Landreg(\n            landsCount,\n            _area,\n            _address,\n            landprice,\n            _allLatiLongi,\n            _propertyPID,\n            _surveyNum,\n            _document,\n            false,\n            payable(msg.sender),\n            false\n        );\n        MyLands[msg.sender].push(landsCount);\n        allLandList[1].push(landsCount);\n        // emit AddingLand(landsCount);\n    }\n\n    function ReturnAllLandList() public view returns (uint256[] memory) {\n        return allLandList[1];\n    }\n\n    function verifyLand(uint256 _id) public {\n        require(isLandInspector(msg.sender));\n        lands[_id].isLandVerified = true;\n    }\n\n    function isLandVerified(uint256 id) public view returns (bool) {\n        return lands[id].isLandVerified;\n    }\n\n    function myAllLands(address id) public view returns (uint256[] memory) {\n        return MyLands[id];\n    }\n\n    function makeItforSell(uint256 id) public {\n        require(lands[id].ownerAddress == msg.sender);\n        lands[id].isforSell = true;\n    }\n\n    function requestforBuy(uint256 _landId) public {\n        require(isUserVerified(msg.sender) && isLandVerified(_landId));\n        requestCount++;\n        LandRequestMapping[requestCount] = LandRequest(\n            requestCount,\n            lands[_landId].ownerAddress,\n            payable (msg.sender),\n            _landId,\n            reqStatus.requested,\n            false\n        );\n        MyReceivedLandRequest[lands[_landId].ownerAddress].push(requestCount);\n        MySentLandRequest[msg.sender].push(requestCount);\n    }\n\n    function myReceivedLandRequests() public view returns (uint256[] memory) {\n        return MyReceivedLandRequest[msg.sender];\n    }\n\n    function mySentLandRequests() public view returns (uint256[] memory) {\n        return MySentLandRequest[msg.sender];\n    }\n\n    function acceptRequest(uint256 _requestId) public {\n        require(LandRequestMapping[_requestId].sellerId == msg.sender);\n        LandRequestMapping[_requestId].requestStatus = reqStatus.accepted;\n    }\n\n    function rejectRequest(uint256 _requestId) public {\n        require(LandRequestMapping[_requestId].sellerId == msg.sender);\n        LandRequestMapping[_requestId].requestStatus = reqStatus.rejected;\n    }\n\n    function requesteStatus(uint256 id) public view returns (bool) {\n        return LandRequestMapping[id].isPaymentDone;\n    }\n\n    function landPrice(uint256 id) public view returns (uint256) {\n        return lands[id].landPrice;\n    }\n\n    function propertytax(uint256 id) public view returns (uint256) {\nreturn (lands[id].landPrice / 5) * 1;\n    }\n\n    function makePayment(uint256 _requestId) public payable {\n        require(\n            LandRequestMapping[_requestId].buyerId == msg.sender &&\n                LandRequestMapping[_requestId].requestStatus ==\n                reqStatus.accepted\n        );\n\n        LandRequestMapping[_requestId].requestStatus = reqStatus.paymentdone;\n        //LandRequestMapping[_requestId].sellerId.transfer(lands[LandRequestMapping[_requestId].landId].landPrice);\n        //lands[LandRequestMapping[_requestId].landId].ownerAddress.transfer(lands[LandRequestMapping[_requestId].landId].landPrice);\n        lands[LandRequestMapping[_requestId].landId].ownerAddress.transfer(\n            msg.value\n        );\n        LandRequestMapping[_requestId].isPaymentDone = true;\n        paymentDoneList[1].push(_requestId);\n    }\n\n    function returnPaymentDoneList() public view returns (uint256[] memory) {\n        return paymentDoneList[1];\n    }\n\n    function transferOwnership(uint256 _requestId, string memory documentUrl)\n        public\n        returns (bool)\n    {\n        require(isLandInspector(msg.sender));\n        if (LandRequestMapping[_requestId].isPaymentDone == false) return false;\n        documentId++;\n        LandRequestMapping[_requestId].requestStatus = reqStatus.commpleted;\n        MyLands[LandRequestMapping[_requestId].buyerId].push(\n            LandRequestMapping[_requestId].landId\n        );\n\n        uint256 len = MyLands[LandRequestMapping[_requestId].sellerId].length;\n        for (uint256 i = 0; i < len; i++) {\n            if (\n                MyLands[LandRequestMapping[_requestId].sellerId][i] ==\n                LandRequestMapping[_requestId].landId\n            ) {\n                MyLands[LandRequestMapping[_requestId].sellerId][i] = MyLands[\n                    LandRequestMapping[_requestId].sellerId\n                ][len - 1];\n                //MyLands[LandRequestMapping[_requestId].sellerId].length--;\n                MyLands[LandRequestMapping[_requestId].sellerId].pop();\n                break;\n            }\n        }\n        lands[LandRequestMapping[_requestId].landId].document = documentUrl;\n        lands[LandRequestMapping[_requestId].landId].isforSell = false;\n        lands[LandRequestMapping[_requestId].landId]\n            .ownerAddress = LandRequestMapping[_requestId].buyerId;\n        return true;\n    }\n\n    function makePaymentTestFun(address payable _reveiver) public payable {\n        _reveiver.transfer(msg.value);\n    }\n}\n",
  "sourcePath": "/home/habib/blockchain/react-work/Landregistry/contracts/LandRegistery.sol",
  "compiler": {
    "name": "solc",
    "version": "0.8.0+commit.c7dfd78e.Emscripten.clang"
  },
  "schemaVersion": "3.4.16",
  "updatedAt": "2024-05-02T03:13:20.606Z",
  "networkType": "ethereum",
  "devdoc": {
    "kind": "dev",
    "methods": {},
    "version": 1
  },
  "userdoc": {
    "kind": "user",
    "methods": {},
    "version": 1
  }
}